{
  "address": "0x15A734df32E7b74EA7d16d52c65908989a327D1D",
  "abi": [
    {
      "inputs": [],
      "stateMutability": "nonpayable",
      "type": "constructor"
    },
    {
      "anonymous": false,
      "inputs": [
        {
          "indexed": true,
          "internalType": "address",
          "name": "owner",
          "type": "address"
        },
        {
          "indexed": true,
          "internalType": "address",
          "name": "approved",
          "type": "address"
        },
        {
          "indexed": true,
          "internalType": "uint256",
          "name": "tokenId",
          "type": "uint256"
        }
      ],
      "name": "Approval",
      "type": "event"
    },
    {
      "anonymous": false,
      "inputs": [
        {
          "indexed": true,
          "internalType": "address",
          "name": "owner",
          "type": "address"
        },
        {
          "indexed": true,
          "internalType": "address",
          "name": "operator",
          "type": "address"
        },
        {
          "indexed": false,
          "internalType": "bool",
          "name": "approved",
          "type": "bool"
        }
      ],
      "name": "ApprovalForAll",
      "type": "event"
    },
    {
      "anonymous": false,
      "inputs": [
        {
          "indexed": true,
          "internalType": "address",
          "name": "previousOwner",
          "type": "address"
        },
        {
          "indexed": true,
          "internalType": "address",
          "name": "newOwner",
          "type": "address"
        }
      ],
      "name": "OwnershipTransferred",
      "type": "event"
    },
    {
      "anonymous": false,
      "inputs": [
        {
          "indexed": true,
          "internalType": "address",
          "name": "from",
          "type": "address"
        },
        {
          "indexed": true,
          "internalType": "address",
          "name": "to",
          "type": "address"
        },
        {
          "indexed": true,
          "internalType": "uint256",
          "name": "tokenId",
          "type": "uint256"
        }
      ],
      "name": "Transfer",
      "type": "event"
    },
    {
      "inputs": [
        {
          "internalType": "address",
          "name": "to",
          "type": "address"
        },
        {
          "internalType": "uint256",
          "name": "tokenId",
          "type": "uint256"
        }
      ],
      "name": "approve",
      "outputs": [],
      "stateMutability": "nonpayable",
      "type": "function"
    },
    {
      "inputs": [
        {
          "internalType": "address",
          "name": "owner",
          "type": "address"
        }
      ],
      "name": "balanceOf",
      "outputs": [
        {
          "internalType": "uint256",
          "name": "",
          "type": "uint256"
        }
      ],
      "stateMutability": "view",
      "type": "function"
    },
    {
      "inputs": [],
      "name": "baseURI",
      "outputs": [
        {
          "internalType": "string",
          "name": "",
          "type": "string"
        }
      ],
      "stateMutability": "view",
      "type": "function"
    },
    {
      "inputs": [],
      "name": "checkLastFed",
      "outputs": [
        {
          "internalType": "uint256",
          "name": "",
          "type": "uint256"
        }
      ],
      "stateMutability": "view",
      "type": "function"
    },
    {
      "inputs": [],
      "name": "feedPet",
      "outputs": [],
      "stateMutability": "payable",
      "type": "function"
    },
    {
      "inputs": [],
      "name": "feedingPrice",
      "outputs": [
        {
          "internalType": "uint256",
          "name": "",
          "type": "uint256"
        }
      ],
      "stateMutability": "view",
      "type": "function"
    },
    {
      "inputs": [
        {
          "internalType": "uint256",
          "name": "tokenId",
          "type": "uint256"
        }
      ],
      "name": "getApproved",
      "outputs": [
        {
          "internalType": "address",
          "name": "",
          "type": "address"
        }
      ],
      "stateMutability": "view",
      "type": "function"
    },
    {
      "inputs": [
        {
          "internalType": "address",
          "name": "owner",
          "type": "address"
        }
      ],
      "name": "hasNFT",
      "outputs": [
        {
          "internalType": "bool",
          "name": "",
          "type": "bool"
        }
      ],
      "stateMutability": "view",
      "type": "function"
    },
    {
      "inputs": [],
      "name": "imageURI",
      "outputs": [
        {
          "internalType": "string",
          "name": "",
          "type": "string"
        }
      ],
      "stateMutability": "view",
      "type": "function"
    },
    {
      "inputs": [
        {
          "internalType": "address",
          "name": "owner",
          "type": "address"
        },
        {
          "internalType": "address",
          "name": "operator",
          "type": "address"
        }
      ],
      "name": "isApprovedForAll",
      "outputs": [
        {
          "internalType": "bool",
          "name": "",
          "type": "bool"
        }
      ],
      "stateMutability": "view",
      "type": "function"
    },
    {
      "inputs": [],
      "name": "mintPet",
      "outputs": [],
      "stateMutability": "payable",
      "type": "function"
    },
    {
      "inputs": [],
      "name": "mintPrice",
      "outputs": [
        {
          "internalType": "uint256",
          "name": "",
          "type": "uint256"
        }
      ],
      "stateMutability": "view",
      "type": "function"
    },
    {
      "inputs": [],
      "name": "name",
      "outputs": [
        {
          "internalType": "string",
          "name": "",
          "type": "string"
        }
      ],
      "stateMutability": "view",
      "type": "function"
    },
    {
      "inputs": [],
      "name": "owner",
      "outputs": [
        {
          "internalType": "address",
          "name": "",
          "type": "address"
        }
      ],
      "stateMutability": "view",
      "type": "function"
    },
    {
      "inputs": [
        {
          "internalType": "uint256",
          "name": "tokenId",
          "type": "uint256"
        }
      ],
      "name": "ownerOf",
      "outputs": [
        {
          "internalType": "address",
          "name": "",
          "type": "address"
        }
      ],
      "stateMutability": "view",
      "type": "function"
    },
    {
      "inputs": [
        {
          "internalType": "address",
          "name": "owner",
          "type": "address"
        },
        {
          "internalType": "uint256",
          "name": "tokenId",
          "type": "uint256"
        }
      ],
      "name": "ownsNFT",
      "outputs": [
        {
          "internalType": "bool",
          "name": "",
          "type": "bool"
        }
      ],
      "stateMutability": "view",
      "type": "function"
    },
    {
      "inputs": [],
      "name": "renounceOwnership",
      "outputs": [],
      "stateMutability": "nonpayable",
      "type": "function"
    },
    {
      "inputs": [
        {
          "internalType": "address",
          "name": "from",
          "type": "address"
        },
        {
          "internalType": "address",
          "name": "to",
          "type": "address"
        },
        {
          "internalType": "uint256",
          "name": "tokenId",
          "type": "uint256"
        }
      ],
      "name": "safeTransferFrom",
      "outputs": [],
      "stateMutability": "nonpayable",
      "type": "function"
    },
    {
      "inputs": [
        {
          "internalType": "address",
          "name": "from",
          "type": "address"
        },
        {
          "internalType": "address",
          "name": "to",
          "type": "address"
        },
        {
          "internalType": "uint256",
          "name": "tokenId",
          "type": "uint256"
        },
        {
          "internalType": "bytes",
          "name": "data",
          "type": "bytes"
        }
      ],
      "name": "safeTransferFrom",
      "outputs": [],
      "stateMutability": "nonpayable",
      "type": "function"
    },
    {
      "inputs": [
        {
          "internalType": "address",
          "name": "operator",
          "type": "address"
        },
        {
          "internalType": "bool",
          "name": "approved",
          "type": "bool"
        }
      ],
      "name": "setApprovalForAll",
      "outputs": [],
      "stateMutability": "nonpayable",
      "type": "function"
    },
    {
      "inputs": [
        {
          "internalType": "bytes4",
          "name": "interfaceId",
          "type": "bytes4"
        }
      ],
      "name": "supportsInterface",
      "outputs": [
        {
          "internalType": "bool",
          "name": "",
          "type": "bool"
        }
      ],
      "stateMutability": "view",
      "type": "function"
    },
    {
      "inputs": [],
      "name": "symbol",
      "outputs": [
        {
          "internalType": "string",
          "name": "",
          "type": "string"
        }
      ],
      "stateMutability": "view",
      "type": "function"
    },
    {
      "inputs": [
        {
          "internalType": "uint256",
          "name": "tokenId",
          "type": "uint256"
        }
      ],
      "name": "tokenURI",
      "outputs": [
        {
          "internalType": "string",
          "name": "",
          "type": "string"
        }
      ],
      "stateMutability": "view",
      "type": "function"
    },
    {
      "inputs": [
        {
          "internalType": "address",
          "name": "from",
          "type": "address"
        },
        {
          "internalType": "address",
          "name": "to",
          "type": "address"
        },
        {
          "internalType": "uint256",
          "name": "tokenId",
          "type": "uint256"
        }
      ],
      "name": "transferFrom",
      "outputs": [],
      "stateMutability": "nonpayable",
      "type": "function"
    },
    {
      "inputs": [
        {
          "internalType": "address",
          "name": "newOwner",
          "type": "address"
        }
      ],
      "name": "transferOwnership",
      "outputs": [],
      "stateMutability": "nonpayable",
      "type": "function"
    },
    {
      "inputs": [],
      "name": "withdraw",
      "outputs": [],
      "stateMutability": "nonpayable",
      "type": "function"
    }
  ],
  "transactionHash": "0xc48cdababaec43b6804c0fc37b343fc759905a2cd1a100baf6d0afb96cfe7a86",
  "args": [],
  "numDeployments": 1,
  "solcInputHash": "fceae5cdcd2dd05747d48f005e6d6dee",
  "bytecode": "0x60e0604052602e60808181529062001ca660a039600790620000229082620001e6565b506040518060600160405280602e815260200162001c78602e91396008906200004c9082620001e6565b50655af3107a400060095564174876e800600a553480156200006d57600080fd5b5060405180604001604052806005815260200164105494195d60da1b8152506040518060400160405280600381526020016204152560ec1b8152508160009081620000b99190620001e6565b506001620000c88282620001e6565b505050620000e5620000df620000eb60201b60201c565b620000ef565b620002b2565b3390565b600680546001600160a01b038381166001600160a01b0319831681179093556040519116919082907f8be0079c531659141344cd1fd0a4f28419497f9722a3daafe3b4186f6b6457e090600090a35050565b634e487b7160e01b600052604160045260246000fd5b600181811c908216806200016c57607f821691505b6020821081036200018d57634e487b7160e01b600052602260045260246000fd5b50919050565b601f821115620001e157600081815260208120601f850160051c81016020861015620001bc5750805b601f850160051c820191505b81811015620001dd57828155600101620001c8565b5050505b505050565b81516001600160401b0381111562000202576200020262000141565b6200021a8162000213845462000157565b8462000193565b602080601f831160018114620002525760008415620002395750858301515b600019600386901b1c1916600185901b178555620001dd565b600085815260208120601f198616915b82811015620002835788860151825594840194600190910190840162000262565b5085821015620002a25787850151600019600388901b60f8161c191681555b5050505050600190811b01905550565b6119b680620002c26000396000f3fe6080604052600436106101815760003560e01c806370a08231116100d15780639d63f8a01161008a578063b88d4fde11610064578063b88d4fde146103fd578063c87b56dd1461041d578063e985e9c51461043d578063f2fde38b1461048657600080fd5b80639d63f8a0146103bf578063a22cb465146103d5578063a4a5f773146103f557600080fd5b806370a082311461032f578063715018a61461034f57806377d6fc4314610364578063785f8ee31461036c5780638da5cb5b1461038c57806395d89b41146103aa57600080fd5b806323b872dd1161013e5780635494b3fa116101185780635494b3fa146102c45780636352211e146102e45780636817c76c146103045780636c0360eb1461031a57600080fd5b806323b872dd1461026f5780633ccfd60b1461028f57806342842e0e146102a457600080fd5b806301ffc9a71461018657806306fdde03146101bb578063081812fc146101dd578063095ea7b314610215578063135d088d14610237578063157902091461024c575b600080fd5b34801561019257600080fd5b506101a66101a136600461151b565b6104a6565b60405190151581526020015b60405180910390f35b3480156101c757600080fd5b506101d06104f8565b6040516101b29190611588565b3480156101e957600080fd5b506101fd6101f836600461159b565b61058a565b6040516001600160a01b0390911681526020016101b2565b34801561022157600080fd5b506102356102303660046115d0565b6105b1565b005b34801561024357600080fd5b506101d06106cb565b34801561025857600080fd5b50610261610759565b6040519081526020016101b2565b34801561027b57600080fd5b5061023561028a3660046115fa565b6107d5565b34801561029b57600080fd5b50610235610806565b3480156102b057600080fd5b506102356102bf3660046115fa565b61084a565b3480156102d057600080fd5b506101a66102df3660046115d0565b610865565b3480156102f057600080fd5b506101fd6102ff36600461159b565b61088b565b34801561031057600080fd5b5061026160095481565b34801561032657600080fd5b506101d06108eb565b34801561033b57600080fd5b5061026161034a366004611636565b6108f8565b34801561035b57600080fd5b5061023561097e565b610235610992565b34801561037857600080fd5b506101a6610387366004611636565b610a64565b34801561039857600080fd5b506006546001600160a01b03166101fd565b3480156103b657600080fd5b506101d0610ab7565b3480156103cb57600080fd5b50610261600a5481565b3480156103e157600080fd5b506102356103f0366004611651565b610ac6565b610235610ad5565b34801561040957600080fd5b506102356104183660046116a3565b610b48565b34801561042957600080fd5b506101d061043836600461159b565b610b80565b34801561044957600080fd5b506101a661045836600461177f565b6001600160a01b03918216600090815260056020908152604080832093909416825291909152205460ff1690565b34801561049257600080fd5b506102356104a1366004611636565b610bf4565b60006001600160e01b031982166380ac58cd60e01b14806104d757506001600160e01b03198216635b5e139f60e01b145b806104f257506301ffc9a760e01b6001600160e01b03198316145b92915050565b606060008054610507906117b2565b80601f0160208091040260200160405190810160405280929190818152602001828054610533906117b2565b80156105805780601f1061055557610100808354040283529160200191610580565b820191906000526020600020905b81548152906001019060200180831161056357829003601f168201915b5050505050905090565b600061059582610c6a565b506000908152600460205260409020546001600160a01b031690565b60006105bc8261088b565b9050806001600160a01b0316836001600160a01b03160361062e5760405162461bcd60e51b815260206004820152602160248201527f4552433732313a20617070726f76616c20746f2063757272656e74206f776e656044820152603960f91b60648201526084015b60405180910390fd5b336001600160a01b038216148061064a575061064a8133610458565b6106bc5760405162461bcd60e51b815260206004820152603d60248201527f4552433732313a20617070726f76652063616c6c6572206973206e6f7420746f60448201527f6b656e206f776e6572206f7220617070726f76656420666f7220616c6c0000006064820152608401610625565b6106c68383610cc9565b505050565b600880546106d8906117b2565b80601f0160208091040260200160405190810160405280929190818152602001828054610704906117b2565b80156107515780601f1061072657610100808354040283529160200191610751565b820191906000526020600020905b81548152906001019060200180831161073457829003601f168201915b505050505081565b60008061076533610d37565b6000818152600260205260409020549091506001600160a01b03166107c15760405162461bcd60e51b815260206004820152601260248201527114195d08191bd95cc81b9bdd08195e1a5cdd60721b6044820152606401610625565b6000908152600b6020526040902054919050565b6107df3382610d7e565b6107fb5760405162461bcd60e51b8152600401610625906117ec565b6106c6838383610dfd565b61080e610f61565b6006546040516001600160a01b03909116904780156108fc02916000818181858888f19350505050158015610847573d6000803e3d6000fd5b50565b6106c683838360405180602001604052806000815250610b48565b6000826001600160a01b031661087a8361088b565b6001600160a01b0316149392505050565b6000818152600260205260408120546001600160a01b0316806104f25760405162461bcd60e51b8152602060048201526018602482015277115490cdcc8c4e881a5b9d985b1a59081d1bdad95b88125160421b6044820152606401610625565b600780546106d8906117b2565b60006001600160a01b0382166109625760405162461bcd60e51b815260206004820152602960248201527f4552433732313a2061646472657373207a65726f206973206e6f7420612076616044820152683634b21037bbb732b960b91b6064820152608401610625565b506001600160a01b031660009081526003602052604090205490565b610986610f61565b6109906000610fbb565b565b600061099d33610d37565b9050336109a98261088b565b6001600160a01b0316146109ff5760405162461bcd60e51b815260206004820152601760248201527f596f7520646f206e6f74206f776e2074686973207065740000000000000000006044820152606401610625565b600a54341015610a515760405162461bcd60e51b815260206004820152601a60248201527f496e636f72726563742045746865722076616c75652073656e740000000000006044820152606401610625565b6000908152600b60205260409020429055565b600060015b600c548111610aae57826001600160a01b0316610a858261088b565b6001600160a01b031603610a9c5750600192915050565b80610aa681611839565b915050610a69565b50600092915050565b606060018054610507906117b2565b610ad133838361100d565b5050565b600954341015610b275760405162461bcd60e51b815260206004820152601a60248201527f496e636f72726563742045746865722076616c75652073656e740000000000006044820152606401610625565b600c8054906000610b3783611839565b919050555061099033600c546110db565b610b523383610d7e565b610b6e5760405162461bcd60e51b8152600401610625906117ec565b610b7a84848484611266565b50505050565b6060610b8b82610c6a565b6000610ba260408051602081019091526000815290565b90506000815111610bc25760405180602001604052806000815250610bed565b80610bcc84611299565b604051602001610bdd929190611860565b6040516020818303038152906040525b9392505050565b610bfc610f61565b6001600160a01b038116610c615760405162461bcd60e51b815260206004820152602660248201527f4f776e61626c653a206e6577206f776e657220697320746865207a65726f206160448201526564647265737360d01b6064820152608401610625565b61084781610fbb565b6000818152600260205260409020546001600160a01b03166108475760405162461bcd60e51b8152602060048201526018602482015277115490cdcc8c4e881a5b9d985b1a59081d1bdad95b88125160421b6044820152606401610625565b600081815260046020526040902080546001600160a01b0319166001600160a01b0384169081179091558190610cfe8261088b565b6001600160a01b03167f8c5be1e5ebec7d5bd14f71427d1e84f3dd0314c0f7b2291e5b200ac8c7c3b92560405160405180910390a45050565b600060015b600c548111610aae57826001600160a01b0316610d588261088b565b6001600160a01b031603610d6c5792915050565b80610d7681611839565b915050610d3c565b600080610d8a8361088b565b9050806001600160a01b0316846001600160a01b03161480610dd157506001600160a01b0380821660009081526005602090815260408083209388168352929052205460ff165b80610df55750836001600160a01b0316610dea8461058a565b6001600160a01b0316145b949350505050565b826001600160a01b0316610e108261088b565b6001600160a01b031614610e365760405162461bcd60e51b81526004016106259061188f565b6001600160a01b038216610e985760405162461bcd60e51b8152602060048201526024808201527f4552433732313a207472616e7366657220746f20746865207a65726f206164646044820152637265737360e01b6064820152608401610625565b826001600160a01b0316610eab8261088b565b6001600160a01b031614610ed15760405162461bcd60e51b81526004016106259061188f565b600081815260046020908152604080832080546001600160a01b03199081169091556001600160a01b0387811680865260038552838620805460001901905590871680865283862080546001019055868652600290945282852080549092168417909155905184937fddf252ad1be2c89b69c2b068fc378daa952ba7f163c4a11628f55a4df523b3ef91a4505050565b6006546001600160a01b031633146109905760405162461bcd60e51b815260206004820181905260248201527f4f776e61626c653a2063616c6c6572206973206e6f7420746865206f776e65726044820152606401610625565b600680546001600160a01b038381166001600160a01b0319831681179093556040519116919082907f8be0079c531659141344cd1fd0a4f28419497f9722a3daafe3b4186f6b6457e090600090a35050565b816001600160a01b0316836001600160a01b03160361106e5760405162461bcd60e51b815260206004820152601960248201527f4552433732313a20617070726f766520746f2063616c6c6572000000000000006044820152606401610625565b6001600160a01b03838116600081815260056020908152604080832094871680845294825291829020805460ff191686151590811790915591519182527f17307eab39ab6107e8899845ad3d59bd9653f200f220920489ca2b5937696c31910160405180910390a3505050565b6001600160a01b0382166111315760405162461bcd60e51b815260206004820181905260248201527f4552433732313a206d696e7420746f20746865207a65726f20616464726573736044820152606401610625565b6000818152600260205260409020546001600160a01b0316156111965760405162461bcd60e51b815260206004820152601c60248201527f4552433732313a20746f6b656e20616c7265616479206d696e746564000000006044820152606401610625565b6000818152600260205260409020546001600160a01b0316156111fb5760405162461bcd60e51b815260206004820152601c60248201527f4552433732313a20746f6b656e20616c7265616479206d696e746564000000006044820152606401610625565b6001600160a01b038216600081815260036020908152604080832080546001019055848352600290915280822080546001600160a01b0319168417905551839291907fddf252ad1be2c89b69c2b068fc378daa952ba7f163c4a11628f55a4df523b3ef908290a45050565b611271848484610dfd565b61127d8484848461132c565b610b7a5760405162461bcd60e51b8152600401610625906118d4565b606060006112a68361142d565b600101905060008167ffffffffffffffff8111156112c6576112c661168d565b6040519080825280601f01601f1916602001820160405280156112f0576020820181803683370190505b5090508181016020015b600019016f181899199a1a9b1b9c1cb0b131b232b360811b600a86061a8153600a85049450846112fa57509392505050565b60006001600160a01b0384163b1561142257604051630a85bd0160e11b81526001600160a01b0385169063150b7a0290611370903390899088908890600401611926565b6020604051808303816000875af19250505080156113ab575060408051601f3d908101601f191682019092526113a891810190611963565b60015b611408573d8080156113d9576040519150601f19603f3d011682016040523d82523d6000602084013e6113de565b606091505b5080516000036114005760405162461bcd60e51b8152600401610625906118d4565b805181602001fd5b6001600160e01b031916630a85bd0160e11b149050610df5565b506001949350505050565b60008072184f03e93ff9f4daa797ed6e38ed64bf6a1f0160401b831061146c5772184f03e93ff9f4daa797ed6e38ed64bf6a1f0160401b830492506040015b6d04ee2d6d415b85acef81000000008310611498576d04ee2d6d415b85acef8100000000830492506020015b662386f26fc1000083106114b657662386f26fc10000830492506010015b6305f5e10083106114ce576305f5e100830492506008015b61271083106114e257612710830492506004015b606483106114f4576064830492506002015b600a83106104f25760010192915050565b6001600160e01b03198116811461084757600080fd5b60006020828403121561152d57600080fd5b8135610bed81611505565b60005b8381101561155357818101518382015260200161153b565b50506000910152565b60008151808452611574816020860160208601611538565b601f01601f19169290920160200192915050565b602081526000610bed602083018461155c565b6000602082840312156115ad57600080fd5b5035919050565b80356001600160a01b03811681146115cb57600080fd5b919050565b600080604083850312156115e357600080fd5b6115ec836115b4565b946020939093013593505050565b60008060006060848603121561160f57600080fd5b611618846115b4565b9250611626602085016115b4565b9150604084013590509250925092565b60006020828403121561164857600080fd5b610bed826115b4565b6000806040838503121561166457600080fd5b61166d836115b4565b91506020830135801515811461168257600080fd5b809150509250929050565b634e487b7160e01b600052604160045260246000fd5b600080600080608085870312156116b957600080fd5b6116c2856115b4565b93506116d0602086016115b4565b925060408501359150606085013567ffffffffffffffff808211156116f457600080fd5b818701915087601f83011261170857600080fd5b81358181111561171a5761171a61168d565b604051601f8201601f19908116603f011681019083821181831017156117425761174261168d565b816040528281528a602084870101111561175b57600080fd5b82602086016020830137600060208483010152809550505050505092959194509250565b6000806040838503121561179257600080fd5b61179b836115b4565b91506117a9602084016115b4565b90509250929050565b600181811c908216806117c657607f821691505b6020821081036117e657634e487b7160e01b600052602260045260246000fd5b50919050565b6020808252602d908201527f4552433732313a2063616c6c6572206973206e6f7420746f6b656e206f776e6560408201526c1c881bdc88185c1c1c9bdd9959609a1b606082015260800190565b60006001820161185957634e487b7160e01b600052601160045260246000fd5b5060010190565b60008351611872818460208801611538565b835190830190611886818360208801611538565b01949350505050565b60208082526025908201527f4552433732313a207472616e736665722066726f6d20696e636f72726563742060408201526437bbb732b960d91b606082015260800190565b60208082526032908201527f4552433732313a207472616e7366657220746f206e6f6e20455243373231526560408201527131b2b4bb32b91034b6b83632b6b2b73a32b960711b606082015260800190565b6001600160a01b03858116825284166020820152604081018390526080606082018190526000906119599083018461155c565b9695505050505050565b60006020828403121561197557600080fd5b8151610bed8161150556fea2646970667358221220527da95142352e0e32931fc6a889012ff8cbcbc5b39f654e5b111033b2672a8664736f6c63430008140033516d524551787836713161696b7472747435594c6b746d366a4c616a6b41674d4d6e686437683850475862784d4e516d576672733253505135395069644775375870633553516364684c754a4e6f6478446b4a59485935796d4a5570",
  "devdoc": {
    "events": {
      "Approval(address,address,uint256)": {
        "details": "Emitted when `owner` enables `approved` to manage the `tokenId` token."
      },
      "ApprovalForAll(address,address,bool)": {
        "details": "Emitted when `owner` enables or disables (`approved`) `operator` to manage all of its assets."
      },
      "Transfer(address,address,uint256)": {
        "details": "Emitted when `tokenId` token is transferred from `from` to `to`."
      }
    },
    "kind": "dev",
    "methods": {
      "approve(address,uint256)": {
        "details": "See {IERC721-approve}."
      },
      "balanceOf(address)": {
        "details": "See {IERC721-balanceOf}."
      },
      "getApproved(uint256)": {
        "details": "See {IERC721-getApproved}."
      },
      "isApprovedForAll(address,address)": {
        "details": "See {IERC721-isApprovedForAll}."
      },
      "name()": {
        "details": "See {IERC721Metadata-name}."
      },
      "owner()": {
        "details": "Returns the address of the current owner."
      },
      "ownerOf(uint256)": {
        "details": "See {IERC721-ownerOf}."
      },
      "renounceOwnership()": {
        "details": "Leaves the contract without owner. It will not be possible to call `onlyOwner` functions. Can only be called by the current owner. NOTE: Renouncing ownership will leave the contract without an owner, thereby disabling any functionality that is only available to the owner."
      },
      "safeTransferFrom(address,address,uint256)": {
        "details": "See {IERC721-safeTransferFrom}."
      },
      "safeTransferFrom(address,address,uint256,bytes)": {
        "details": "See {IERC721-safeTransferFrom}."
      },
      "setApprovalForAll(address,bool)": {
        "details": "See {IERC721-setApprovalForAll}."
      },
      "supportsInterface(bytes4)": {
        "details": "See {IERC165-supportsInterface}."
      },
      "symbol()": {
        "details": "See {IERC721Metadata-symbol}."
      },
      "tokenURI(uint256)": {
        "details": "See {IERC721Metadata-tokenURI}."
      },
      "transferFrom(address,address,uint256)": {
        "details": "See {IERC721-transferFrom}."
      },
      "transferOwnership(address)": {
        "details": "Transfers ownership of the contract to a new account (`newOwner`). Can only be called by the current owner."
      }
    },
    "version": 1
  },
  "userdoc": {
    "kind": "user",
    "methods": {},
    "version": 1
  },
  "storageLayout": {
    "storage": [
      {
        "astId": 138,
        "contract": "contracts/ARPet.sol:ARPet",
        "label": "_name",
        "offset": 0,
        "slot": "0",
        "type": "t_string_storage"
      },
      {
        "astId": 140,
        "contract": "contracts/ARPet.sol:ARPet",
        "label": "_symbol",
        "offset": 0,
        "slot": "1",
        "type": "t_string_storage"
      },
      {
        "astId": 144,
        "contract": "contracts/ARPet.sol:ARPet",
        "label": "_owners",
        "offset": 0,
        "slot": "2",
        "type": "t_mapping(t_uint256,t_address)"
      },
      {
        "astId": 148,
        "contract": "contracts/ARPet.sol:ARPet",
        "label": "_balances",
        "offset": 0,
        "slot": "3",
        "type": "t_mapping(t_address,t_uint256)"
      },
      {
        "astId": 152,
        "contract": "contracts/ARPet.sol:ARPet",
        "label": "_tokenApprovals",
        "offset": 0,
        "slot": "4",
        "type": "t_mapping(t_uint256,t_address)"
      },
      {
        "astId": 158,
        "contract": "contracts/ARPet.sol:ARPet",
        "label": "_operatorApprovals",
        "offset": 0,
        "slot": "5",
        "type": "t_mapping(t_address,t_mapping(t_address,t_bool))"
      },
      {
        "astId": 7,
        "contract": "contracts/ARPet.sol:ARPet",
        "label": "_owner",
        "offset": 0,
        "slot": "6",
        "type": "t_address"
      },
      {
        "astId": 2807,
        "contract": "contracts/ARPet.sol:ARPet",
        "label": "baseURI",
        "offset": 0,
        "slot": "7",
        "type": "t_string_storage"
      },
      {
        "astId": 2810,
        "contract": "contracts/ARPet.sol:ARPet",
        "label": "imageURI",
        "offset": 0,
        "slot": "8",
        "type": "t_string_storage"
      },
      {
        "astId": 2813,
        "contract": "contracts/ARPet.sol:ARPet",
        "label": "mintPrice",
        "offset": 0,
        "slot": "9",
        "type": "t_uint256"
      },
      {
        "astId": 2816,
        "contract": "contracts/ARPet.sol:ARPet",
        "label": "feedingPrice",
        "offset": 0,
        "slot": "10",
        "type": "t_uint256"
      },
      {
        "astId": 2820,
        "contract": "contracts/ARPet.sol:ARPet",
        "label": "lastFed",
        "offset": 0,
        "slot": "11",
        "type": "t_mapping(t_uint256,t_uint256)"
      },
      {
        "astId": 2822,
        "contract": "contracts/ARPet.sol:ARPet",
        "label": "_tokenIdCounter",
        "offset": 0,
        "slot": "12",
        "type": "t_uint256"
      }
    ],
    "types": {
      "t_address": {
        "encoding": "inplace",
        "label": "address",
        "numberOfBytes": "20"
      },
      "t_bool": {
        "encoding": "inplace",
        "label": "bool",
        "numberOfBytes": "1"
      },
      "t_mapping(t_address,t_bool)": {
        "encoding": "mapping",
        "key": "t_address",
        "label": "mapping(address => bool)",
        "numberOfBytes": "32",
        "value": "t_bool"
      },
      "t_mapping(t_address,t_mapping(t_address,t_bool))": {
        "encoding": "mapping",
        "key": "t_address",
        "label": "mapping(address => mapping(address => bool))",
        "numberOfBytes": "32",
        "value": "t_mapping(t_address,t_bool)"
      },
      "t_mapping(t_address,t_uint256)": {
        "encoding": "mapping",
        "key": "t_address",
        "label": "mapping(address => uint256)",
        "numberOfBytes": "32",
        "value": "t_uint256"
      },
      "t_mapping(t_uint256,t_address)": {
        "encoding": "mapping",
        "key": "t_uint256",
        "label": "mapping(uint256 => address)",
        "numberOfBytes": "32",
        "value": "t_address"
      },
      "t_mapping(t_uint256,t_uint256)": {
        "encoding": "mapping",
        "key": "t_uint256",
        "label": "mapping(uint256 => uint256)",
        "numberOfBytes": "32",
        "value": "t_uint256"
      },
      "t_string_storage": {
        "encoding": "bytes",
        "label": "string",
        "numberOfBytes": "32"
      },
      "t_uint256": {
        "encoding": "inplace",
        "label": "uint256",
        "numberOfBytes": "32"
      }
    }
  }
}